:020000040800F2
:10000000080C002089010008C50D0008490C0008F3
:10001000C50C00084D050008AD21000800000000D7
:100020000000000000000000000000005110000867
:10003000810A0008000000004D0E0008A911000808
:10004000A3010008A3010008A3010008A301000800
:10005000A3010008A3010008A3010008A3010008F0
:10006000A3010008A3010008A3010008A3010008E0
:10007000A3010008A3010008A3010008A3010008D0
:10008000A3010008A3010008A3010008A3010008C0
:1000900045210008A3010008A3010008A3010008EE
:1000A000A3010008A3010008A3010008A3010008A0
:1000B000A3010008A30100084D140008A3010008D3
:1000C000A3010008A3010008A3010008A301000880
:1000D000A3010008691E0008A3010008F51E00081E
:1000E000A3010008A3010008A301000800F002F822
:1000F00000F03AF80AA090E8000C82448344AAF188
:100100000107DA4501D100F02FF8AFF2090EBAE885
:100110000F0013F0010F18BFFB1A43F0010318473B
:10012000B4290000D4290000103A24BF78C878C14F
:10013000FAD8520724BF30C830C144BF04680C60ED
:10014000704700000023002400250026103A28BF35
:1001500078C1FBD8520728BF30C148BF0B60704739
:100160001FB51FBD10B510BD00F0CCF81146FFF74C
:10017000F7FF02F047F800F0EAF803B4FFF7F2FFE8
:1001800003BC02F03DF800000948804709480047D9
:10019000FEE7FEE7FEE7FEE7FEE7FEE7FEE7FEE737
:1001A000FEE7FEE704480549054A064B7047000094
:1001B000AD110008ED00000808060020080C002022
:1001C0000808002008080020704740EA010370B5C5
:1001D0009B072ED14FF00136042A2AD308C810C934
:1001E0009D1B9D43121F15EAC61517D0D8B2E1B268
:1001F000401A50EA056110D198B2A1B2401A50EAF3
:1002000005410AD123F07F4024F07F41401A50EA93
:10021000052102D1180EA0EB146070BDA342DBD003
:1002200018BA21BA884201D9012070BD4FF0FF30C1
:1002300070BD0AB9002070BD10F8013B11F8014BE8
:1002400063B1A3420AD1521E08D010F8013B11F845
:10025000014B1BB1A34201D1521EEDD1181B70BD41
:100260004FF000020429C0F0128010F0030C00F0DF
:100270001F80CCF1040CBCF1020F18BF00F8012B59
:10028000A8BF20F8022BA1EB0C0100F011B85FEA27
:10029000C17C24BF00F8012B00F8012B48BF00F8F7
:1002A000012B704770477047704770474FF000024E
:1002B00000B5134694469646203922BFA0E80C505C
:1002C000A0E80C50B1F12001BFF4F7AF090728BF37
:1002D000A0E80C5048BF0CC05DF804EB890028BFB3
:1002E00040F8042B08BF704748BF20F8022B11F0DC
:1002F000804F18BF00F8012B70470000004870477E
:10030000A40500207546FFF7F9FFAE4605006946D3
:10031000534620F00700854618B020B5FFF742FF8E
:10032000BDE820404FF000064FF000074FF00008F6
:100330004FF0000B21F00701AC46ACE8C009ACE877
:10034000C009ACE8C009ACE8C0098D46704710B5DB
:100350000446AFF300802046BDE81040FFF70DBF14
:1003600000B587B001210D2000F092FD0121264843
:1003700000F020FC0320ADF8180004208DF81B00CD
:1003800003208DF81A0006A9204800F088FB0121FF
:10039000084600F05DFD01211D4800F00BFC4FF008
:1003A000804001F0A7F903A801F016FD0020ADF888
:1003B0000C004FF6FF70ADF810000020ADF81200F1
:1003C000ADF80E0003A94FF0804001F0B3FC00230C
:1003D0001A4603214FF0804001F080FA684601F090
:1003E00005FB0620ADF8080069464FF0804001F09B
:1003F000A7FA00204FF0804188840121880701F08E
:100400005DF907B000BD00000003180000080140BE
:100410000002180070B505462C46B4F5616F01DD89
:100420004FF4616414F5616F00DA0D4C002C0BDDA4
:100430004FF461610B4801F04CFCC4F5616081B27E
:10044000084801F048FC0AE04FF46161054801F0FA
:1004500042FC04F5616081B2024801F03AFC70BDD3
:10046000F0F1FFFF0004004000B589B001210C202D
:1004700000F00EFD0320ADF8200018208DF82300B9
:1004800003208DF8220008A92D4800F008FBC020A9
:10049000ADF8200018208DF8230003208DF82200ED
:1004A00008A9284800F0FBFA0121022000F0D0FC46
:1004B00040F60F60ADF818000020ADF81400ADF85C
:1004C0001A00ADF8160005A91F4801F033FC6020A2
:1004D000ADF804000120ADF806000020ADF80A00D8
:1004E000ADF80C0001A9184801F098FA0821164847
:1004F00001F0E0FA01A9144801F0E6FA08211248D7
:1005000001F034FB01A9104801F03EFB08210E4820
:1005100001F08AFB01A90C4801F090FB08210A4870
:1005200001F0CAFB0121084801F0B6F80121064894
:1005300001F0C4F80121044801F0CCF809B000BD75
:10054000000C0140000801400004004000BFFEE72D
:1005500000220C4B994202D10023836111E0C1F3C8
:10056000130201F000730BB1C2600AE001F0806376
:100570000BB1026105E001F000630BB1826000E0A5
:10058000426070477000F030B1F5007F3AD00FDC68
:10059000202928D006DC01291CD004291DD00829D7
:1005A00040D11DE0402921D0B1F5807F3AD126E02D
:1005B000B1F5004F31D006DCB1F5806F25D0B1F533
:1005C000006F2FD124E0B1F5803F12D0B1F5003F8C
:1005D00028D111E0154A826025E00822C26022E09D
:1005E0001022C2601FE0082202611CE0102202619A
:1005F00019E00822426016E01022426013E0042253
:10060000426010E0042242600DE0042242600AE0F1
:10061000002282610422426005E0002282610422FD
:10062000426000E000BF00BF704700000101010010
:1006300010B50021837A012202FA03F13D4A1268C3
:1006400042F001023B4B1A603A4A1C3212688A435C
:10065000384B1C331A60027BCAB9364A0C32126816
:100660008A43344B0C331A604288C38842EA0343FE
:10067000304A4032847A42F834300288838842EA31
:1006800003432C4A4032847A02EBC4025360027B5B
:10069000012A19D1274A0C3212680A43254B0C3320
:1006A0001A604288038842EA0343224A4032847A2D
:1006B00042F83430C288838842EA03431D4A4032FC
:1006C000847A02EBC4025360C27A3AB9194A121D05
:1006D00012688A43174B1B1D1A6006E0154A121D4B
:1006E00012680A43134B1B1D1A60028932B9114A62
:1006F000143212688A430F4B14331A600289012A9C
:1007000006D10C4A143212680A430A4B14331A6099
:10071000427B012A06D1074A1C3212680A43054B64
:100720001C331A60034A126822F00102014B1A605E
:1007300010BD00000066004070B504460D4600265E
:1007400060692840002871D0B5F5807F5CD010DC4E
:10075000082D35D006DC012D20D0022D24D0042D0B
:1007600072D127E0102D31D0202D35D0402D6BD106
:1007700038E0B5F5004F60D009DCB5F5007F49D011
:10078000B5F5806F4CD0B5F5006F5DD14FE0B5F594
:10079000803F2DD0B5F5003F56D12FE0A0682D4900
:1007A00000F065F9064651E0E068032100F05FF9CA
:1007B00006464BE0E068082100F059F9064645E09E
:1007C000E068102100F053F906463FE0206903215C
:1007D00000F04DF9064639E02069082100F047F99C
:1007E000064633E02069102100F041F906462DE06D
:1007F0006068082100F03BF9064627E06068102198
:1008000000F035F9064621E0A069012100F02FF93A
:1008100006461BE0A069022100F029F9064615E012
:10082000A069042100F023F906460FE00FE0A0695B
:10083000702100F01CF9064608E06068042100F011
:1008400016F9064602E0FFE7002600BF00E000269A
:10085000304670BD010101001AB143690B43436189
:1008600002E043698B434361704730B50246002084
:100870000023146824F002041460146844F0010496
:10088000146000E05B1C546804F001041CB94FF6CE
:10089000FF74A342F6D1546804F001040CB900209F
:1008A0006CE08C79012C04D1146844F0800414604D
:1008B00003E0146824F080041460CC79012C04D186
:1008C000146844F04004146003E0146824F0400409
:1008D00014600C7A012C04D1146844F020041460D4
:1008E00003E0146824F0200414604C7A012C04D135
:1008F000146844F01004146003E0146824F0100439
:1009000014608C7A012C04D1146844F0080414603B
:1009100003E0146824F008041460CC7A012C04D19C
:10092000146844F00404146003E0146824F0040420
:1009300014608C78A407CD7844EA05640D7944EA04
:1009400005444D7944EA05540D886D1E2C43D4614D
:10095000146824F001041460002300E05B1C546858
:1009600004F001041CB14FF6FF74A342F6D15468A1
:1009700004F001040CB1002000E0012030BD10B5EE
:1009800000F5D87303EB01131B6803F00403137223
:10099000137A53B900F5D87303EB01131B6840F2C7
:1009A000FF7404EA5353136009E000F5D87303EBB6
:1009B00001131B686FF0604404EAD303536000F531
:1009C000D87303EB01131B6803F00203537200F5A5
:1009D000D87303EB01135B6803F00F03937200F508
:1009E000D87303EB01135B681B0AD37400F5D8734B
:1009F00003EB01139B68D37200F5D87303EB01136B
:100A00009B681C0A147300F5D87303EB01139B68F1
:100A10001C0C547300F5D87303EB01139B681B0E79
:100A2000937300F5D87303EB0113DB68D37300F500
:100A3000D87303EB0113DB681C0A147400F5D87338
:100A400003EB0113DB681C0C547400F5D87303EB43
:100A50000113DB681B0E937421B9C36843F02003B4
:100A6000C36003E0036943F02003036110BD024645
:100A7000002002EA01030BB1012000E000207047D2
:100A8000704708B50090009A0A70009A120A4A70DE
:100A9000009A120C8A70009A120ECA7008BD2DE9D5
:100AA000F0410246002500260020002300240027F4
:100AB00091F803C00CF00F0591F803C00CF0100C76
:100AC000BCF1000F03D091F802C04CEA050591F883
:100AD00000C0BCF1000F31D0146800202BE04FF0B3
:100AE000010C0CFA00F3B1F800C00CEA03069E42B8
:100AF00020D183004FF00F0C0CFA03F7BC4305FA2A
:100B000003FC4CEA040491F803C0BCF1280F06D1A1
:100B10004FF0010C0CFA00FCC2F814C00AE091F886
:100B200003C0BCF1480F05D14FF0010C0CFA00FCDA
:100B3000C2F810C0401C0828D1D31460B1F800C01E
:100B4000BCF1FF0F34DD546800202EE000F1080CEA
:100B50004FF0010808FA0CF3B1F800C00CEA0306E4
:100B60009E4221D183004FF00F0C0CFA03F7BC43D7
:100B700005FA03FC4CEA040491F803C0BCF1280F09
:100B800005D100F1080C08FA0CF8C2F8148091F8AD
:100B900003C0BCF1480F07D100F1080C4FF0010869
:100BA00008FA0CF8C2F81080401C0828CED3546014
:100BB000BDE8F081F0B50A4600230024002100259D
:100BC00000F00046B6F1004F02D11D4EF16901E080
:100BD0001B4E7168C0F3034583B200F44016B6F5AE
:100BE000401F08D121F07061154E766826F07066BE
:100BF000134F7E6012E000F48016B6F5801F06D118
:100C0000032606FA05F4A14341F0706106E0460DA3
:100C1000360103FA06F6B14341F0706122B1460D88
:100C2000360103FA06F6314300F00046B6F1004FF4
:100C300002D1034EF16101E0014E7160F0BD000090
:100C4000000001400161704700BFFEE708B50121C7
:100C5000092000F01DF901210A48FFF7ABFF4820E9
:100C60008DF80300C020ADF8000003208DF80200CD
:100C700069460548FFF713FFC0210348FFF7E2FF6D
:100C800008BD000000023000000C014008B5012141
:100C9000082000F0FDF810208DF803004FF460509C
:100CA000ADF8000003208DF8020069460448FFF704
:100CB000F6FE4FF460510248FFF7C4FF08BD000084
:100CC000000C014000BFFEE710B58AB004460121C8
:100CD000480600F0BDF80121082000F0D9F80121F4
:100CE000084600F0D5F818208DF827004FF4007062
:100CF000ADF8240003208DF8260009A92F48FFF73E
:100D0000CEFE48208DF827004FF48070ADF8240007
:100D100009A92A48FFF7C3FE01214FF4EA10FFF7A3
:100D200049FFADF8184000208DF81A008DF81B001F
:100D300004208DF81C0002208DF81D0000208DF885
:100D40001E008DF81F008DF820008DF821008DF811
:100D500022008DF8230006A91948FFF786FD002020
:100D60008DF812008DF8130001208DF8140000207A
:100D7000ADF80800ADF80A00ADF80C00ADF80E00B3
:100D8000ADF8100001208DF8150002A8FFF750FC07
:100D9000012202210A48FFF75FFD14208DF80400AC
:100DA00004208DF8050000208DF8060001208DF844
:100DB000070001A800F008F80AB010BD000C0140BF
:100DC000006400407047000070B5002100230F222E
:100DD000C47804B3154C246804F4E064C4F5E064FA
:100DE000210AC1F10403CA40447804FA03F184786B
:100DF0001440214309010E4C0678A155047804F0F3
:100E00001F050124AC4005786D11AD0005F1E0250A
:100E1000C5F8004109E0047804F01F050124AC4046
:100E2000044D0678761145F8264070BD0CED00E0C3
:100E300000E400E080E100E002490143024A116061
:100E4000704700000000FA050CED00E0704700005C
:100E500029B1064AD2690243044BDA6104E0034A2D
:100E6000D2698243014BDA617047000000100240F2
:100E700029B1064A12690243044B1A6104E0034A8D
:100E800012698243014B1A61704700000010024052
:100E900029B1064A92690243044B9A6104E0034A6D
:100EA00092698243014B9A61704700000010024032
:100EB00029B1064AD2680243044BDA6004E0034ACF
:100EC000D2688243014BDA60704700000010024094
:100ED00030B500210022002400232D4D6D6805F05F
:100EE0000C0121B1042905D0082923D105E0294DA1
:100EF000056022E0274D05601FE0254D6D6805F473
:100F00007012234D6D6805F48034022505EB924282
:100F10001CB9214D554305600BE01D4D6D6805F46E
:100F200000351DB11C4D5543056002E0194D554378
:100F3000056002E0174D056000BF00BF144D6D68ED
:100F400005F0F0010909154D6B5C0568DD40456051
:100F50000F4D6D6805F4E061090A104D6B5C456842
:100F6000DD4085600A4D6D6805F46051C90A0B4D7E
:100F70006B5C4568DD40C560054D6D6805F440411A
:100F8000890B074D6B5CC568B5FBF3F5056130BD9A
:100F90000010024000127A0000093D00000000200D
:100FA00010000020C37A0B70037B4B70437B8B7067
:100FB000837BCB70C37B0B71037C4B71437C8B7148
:100FC000837CCB71704700000146022906D00329BB
:100FD0000DD0042912D005291ED116E04FF0804211
:100FE000928C10B200224FF080439A8416E00C4A93
:100FF000128810B200220A4B1A800FE0094A1288A8
:1010000010B20022074B1A8008E0074A128810B27B
:101010000022054B1A8001E0002000BF00BF70478E
:101020002404004024080040240C004010B5C37A7A
:101030000B72047B4C72447B8C72847BCC72C47BBD
:101040000C73047C4C73447C8C73847CCC7310BD17
:101050007047000010B50446134814490968445409
:1010600012480068401C1149086008460068B0F545
:10107000C87F06DA08460068401E0B49085C0A284B
:1010800011D102220AA10848FFF79FF802220AA103
:101090000548FFF79AF84FF4C8710348FFF7E0F8E6
:1010A00000200249086010BDBC0100202C00002077
:1010B000563D0A2000000000533D0A2000000000B9
:1010C00010B500F001F810BD0CB5002001900090A3
:1010D0003348006840F480303149086000BF304830
:1010E000006800F4003000900198401C01900098C6
:1010F00018B90198B0F5A06FF1D12948006800F443
:10110000003010B10120009001E000200090009814
:10111000012843D12348006840F0100021490860AD
:101120000846006820F0030008600846006840F0A8
:10113000020008601A48406819494860084640683B
:1011400048600846406840F480604860084640684F
:1011500020F47C1048600846406840F4E81048607D
:101160000846006840F08070086000BF0C480068C6
:1011700000F000700028F9D00948406820F0030012
:10118000074948600846406840F00200486000BFD8
:101190000348406800F00C000828F9D10CBD00009D
:1011A00000100240002002407047000010B51348B4
:1011B000006840F001001149086008464068104985
:1011C00008400E494860084600680E4908400B492F
:1011D00008600846006820F48020086008464068DF
:1011E00020F4FE0048604FF41F008860FFF768FF9E
:1011F0004FF000600449086010BD0000001002407C
:101200000000FFF8FFFFF6FE08ED00E0F0B50C4629
:10121000154600220021068C4FF6FE773E400684DC
:10122000028B018C4FF60C7632407E1C06EA0316C8
:101230002E433243104EB0420ED0104EB0420BD06F
:10124000B0F1804F08D00E4EB04205D00D4EB042E6
:1012500002D00D4EB04206D14FF6FD76314044F03B
:101260000106314305E04FF6F576314044F00106C2
:10127000314302830184F0BD002C01400034014061
:101280000004004000080040000C0040F0B50C468F
:101290001546002200210026078C4FF6EF7C07EA56
:1012A0000C070784028B018C4FF6FF7707EA0416C0
:1012B00040F6FF473A404FF6FF7707EA03373A43D5
:1012C0004FF6FF7707EA05273A43114FB8420ED091
:1012D000104FB8420BD0B0F1804F08D00E4FB8423B
:1012E00005D00E4FB84202D00D4FB84206D14FF68E
:1012F000DF77394046F01007394305E04FF65F7756
:10130000394044F01007394302830184F0BD0000E6
:10131000002C01400034014000040040000800405F
:10132000000C0040F0B50C461546002200210026B6
:10133000078C4FF6FF6C07EA0C070784828B018C41
:101340004FF6FF7707EA04264FF60C773A404FF640
:10135000FF7707EA03172F433A43114FB8420ED0E5
:10136000104FB8420BD0B0F1804F08D00E4FB842AA
:1013700005D00E4FB84202D00D4FB84206D14FF6FD
:10138000FF57394046F48077394305E04FF2FF5765
:10139000394044F48077394382830184F0BD0000F2
:1013A000002C0140003401400004004000080040CF
:1013B000000C0040F0B50C46154600220021002626
:1013C000078C4EF6FF7C07EA0C070784828B018CA2
:1013D0004FF6FF7707EA043640F6FF473A404FF6EC
:1013E000FF7707EA05273A434FF6FF7707EA033707
:1013F0003A43114FB8420ED0104FB8420BD0B0F163
:10140000804F08D00E4FB84205D00E4FB84202D0E0
:101410000D4FB84206D14DF6FF77394046F480575C
:10142000394305E047F6FF57394044F480573943C4
:1014300082830184F0BD0000002C01400034014093
:101440000004004000080040000C00402DE9F0417D
:101450000121874800F063FA01287DD101218448E9
:1014600000F029F90220FFF7AFFD044601F0C4F9AE
:1014700080494861486801F0BFF905467D484169E7
:10148000284601F079F8044601F09AF97949486054
:10149000486801F0B1F90746774901F0CFF80646F0
:1014A0004FF0814101F0CAF80546744901F0D0F9C6
:1014B000044601F035F86F4AC2E906011146486951
:1014C0006D4901F0BBF806464FF0814101F0B6F8D6
:1014D00005466A4901F0BCF90446694901F0B8F9CA
:1014E000644908610846D0E908432246D0E906610C
:1014F000304600F0DFFF03D801205E49087002E0AB
:1015000000205C4908705B488078002875D05D48F1
:101510000068002847D15B49943108605549086943
:1015200000F0FEFF21F0004104460022564B00F07F
:10153000C1FF2BD24F488068401C4E498860084646
:10154000806896287FDB962088600846C068401C2B
:10155000C86000204B4900E087E0983108604548AA
:10156000C0680F2803DABE20FEF754FF06E04148AA
:10157000C0680F2802DD0020FEF74CFF3D48C06820
:10158000DC2860DD00203B49C8605CE00020394970
:10159000886001203B499831086000203549C860C7
:1015A000FEF738FF4FE0002032498860C860002114
:1015B000304A9161D161114648600120314994312E
:1015C00008603249C1F8B0012E48001D006858B9C2
:1015D0001046807840B14FF4FA70FEF71BFF0020F0
:1015E00028499C3108602EE0012026499C31086082
:1015F0000020FEF70FFF26E0FFE701202149983188
:10160000086023480068401C2149086008460068BB
:10161000322804DA00201B499431086013E01C488A
:101620000068322808DD1A480068642804DA0120BE
:1016300014499431086006E015480068642802DD0A
:101640000020134908601349887901F0EDF8044639
:101650000849D1E90621104600F05EFE054605481E
:1016600022460169284600F0A3FDBDE8F081000094
:1016700000080040A8000020000048430000F0419E
:101680000000C8421881214200003E4000802142F3
:1016900018000020D000002021B1028842F0800212
:1016A000028004E002884FF67F731A400280704780
:1016B000CA4302827047CA430282704721B102883E
:1016C00042F00102028004E002884FF6FE731A40E5
:1016D0000280704731B1B0F8442042F40042A0F8D3
:1016E000442005E0B0F84420C2F30E02A0F84420E4
:1016F0007047000010B504466848844208D10121B3
:10170000C014FFF7D5FB0021E014FFF7D1FBC4E0C4
:10171000B4F1804F08D101210846FFF7A9FB002151
:101720000120FFF7A5FBB8E05D48844208D1012104
:101730000220FFF79DFB00210220FFF799FBACE0A0
:101740005848844208D101210420FFF791FB002171
:101750000420FFF78DFBA0E05348844208D101210B
:101760000820FFF785FB00210820FFF781FB94E0AC
:101770004E48844208D101211020FFF779FB002157
:101780001020FFF775FB88E04948844208D1012109
:101790002020FFF76DFB00212020FFF769FB7CE094
:1017A0004448844208D101214014FFF781FB002105
:1017B0006014FFF77DFB70E03F48844209D10121AE
:1017C000C804FFF775FB00214FF40020FFF770FB02
:1017D00063E03A48844209D101210805FFF768FB1C
:1017E00000214FF48010FFF763FB56E03448844239
:1017F00009D101214805FFF75BFB00214FF40010E0
:10180000FFF756FB49E02F48844208D101214020D0
:10181000FFF72EFB00214020FFF72AFB3DE02A487E
:10182000844208D101218020FFF722FB0021802083
:10183000FFF71EFB31E02548844208D101218015C5
:10184000FFF716FB0021A015FFF712FB25E020484B
:10185000844209D101210804FFF72AFB00214FF43B
:101860008030FFF725FB18E01A48844209D1012196
:101870004804FFF71DFB00214FF40030FFF718FB71
:101880000BE01548844208D101218804FFF710FBC2
:1018900000214FF48020FFF70BFB10BD002C01400E
:1018A0000004004000080040000C00400010004010
:1018B0000014004000340140004C01400050014041
:1018C0000054014000180040001C0040002000406F
:1018D000004001400044014000480140F0B50C4682
:1018E00015461E460021002200230189028B038C2D
:1018F0004FF6F877394021434FF6FC473A4040F223
:1019000001173A434FF6DD773B404FF6FF7707EA82
:1019100006172F433B43018102830384F0BD30B59A
:101920000246002000230024158A05EA0103958958
:1019300005EA010413B10CB1012000E0002030BD24
:1019400070B505460C46244885420ED02348854292
:101950000BD0B5F1804F08D02148854205D02148F1
:10196000854202D02048854200D100E000BF208897
:1019700050B92389A28861882846FFF747FCE1888F
:10198000284600F0ABF925E0208804280AD12389F5
:10199000A28861882846FFF779FCE188284600F094
:1019A000A6F917E0208808280AD12389A28861882F
:1019B0002846FFF7B7FCE188284600F0A5F909E0C2
:1019C0002389A28861882846FFF7F4FCE18828462D
:1019D00000F0A3F970BD0000002C0140003401406C
:1019E0000004004000080040000C0040002101807D
:1019F0004180012181800021C180018170471AB19D
:101A000083890B43838102E083898B438381704701
:101A100001894FF6F87211400181704770B50024BA
:101A200000220023058C4FF6FE7635400584028C9B
:101A30008388048B4FF68F752C40B51E2C400D8883
:101A40002C43751E2A400D892A434D882A43144D84
:101A5000A8420BD0134DA84208D0134DA84205D080
:101A6000124DA84202D0124DA84213D14FF6F7757D
:101A70002A404D892A434FF6FB752A408D882A4318
:101A80004FF6FF652B404FF6FF552B408D892B43BA
:101A9000CD892B4383800483CD888586028470BDE5
:101AA000002C01400034014000400140004401404E
:101AB000004801400A460021018B4FF6F773194098
:101AC000114301837047000070B5002400220023F9
:101AD000058C4FF6EF7635400584028C8388048BA5
:101AE00048F6FF752C404FF6FF452C400D884FF609
:101AF000FF7606EA05252C434FF6DF752A400D894F
:101B000006EA05152A434D8806EA05152A43154DB0
:101B1000A84202D0144DA8421DD14FF67F752A402D
:101B20004D894FF6FF7606EA05152A434FF6BF7535
:101B30002A408D8806EA05152A434FF6FF352B40CB
:101B40004FF2FF752B408D8906EA85052B43CD8921
:101B500006EA85052B4383800483CD8805870284AC
:101B600070BD0000002C0140003401400A460021F5
:101B7000018B4FF2FF7319404FF6FF7303EA022304
:101B8000194301837047000070B500240022002330
:101B9000058C4FF6FF6635400584028C8388848B64
:101BA0004FF68F752C404FF6FC752C400D882C435A
:101BB0004FF6FF552A400D894FF6FF7606EA0525B8
:101BC0002A434D8806EA05252A43154DA84202D02E
:101BD000144DA8421DD14FF2FF752A404D894FF692
:101BE000FF7606EA05252A434FF6FF352A408D8801
:101BF00006EA05252A434EF6FF752B404DF6FF7584
:101C00002B408D8906EA05152B43CD8906EA05157B
:101C10002B4383808483CD888587028470BD000038
:101C2000002C0140003401400A460021818B4FF610
:101C3000F7731940114381837047000070B500228B
:101C400000230024058C4EF6FF7635400584038C76
:101C50008488828B48F6FF752A404FF6FF452A405C
:101C60000D884FF6FF7606EA05252A434DF6FF75E7
:101C70002B400D8906EA05352B434D8806EA0535CC
:101C80002B430B4DA84202D00A4DA84208D14BF677
:101C9000FF752C408D894FF6FF7606EA85152C439B
:101CA00084808283CD88A0F84050038470BD0000FA
:101CB000002C0140003401400A460021818B4FF284
:101CC000FF7319404FF6FF7303EA02231943818320
:101CD000704781877047A0F840107047028B4FF61D
:101CE000F3731A400283028B0A4302837047028B0C
:101CF0004FF2FF331A400283028B4FF6FF7303EA61
:101D000001231A4302837047828B4FF6F3731A4004
:101D10008283828B0A4382837047828B4FF2FF3328
:101D20001A408283828B4FF6FF7303EA01231A4322
:101D300082837047002202881D4B98420ED01D4BB3
:101D400098420BD0B0F1804F08D01B4B984205D081
:101D50001A4B984202D01A4B984204D14FF68F7317
:101D60001A404B881A43174B984207D0164B98429B
:101D700004D04FF6FF431A40CB881A4302808B8869
:101D800083850B8803850A4B98420BD0094B9842F8
:101D900008D00E4B984205D00D4B984202D00D4B07
:101DA000984201D10B7A0386012383827047000099
:101DB000002C0140003401400004004000080040B5
:101DC000000C0040001000400014004000400140A2
:101DD00000440140004801404FF6FF71818000211E
:101DE0000180C18041800172704700001FB5012150
:101DF0000420FFF72DF81B48FFF70AFE0020ADF87E
:101E00000A00ADF806006320ADF8080041F61F4057
:101E1000ADF8040000208DF80C0001A91148FFF76F
:101E200089FF01210F48FFF743FC012211460D48AD
:101E3000FFF7E5FD4FF4A060FEF7FEFF1E208DF8D2
:101E4000000001208DF8030002208DF80100012020
:101E50008DF802006846FEF7B7FF01210148FFF741
:101E60002DFC1FBD0008004010B540F225511E4852
:101E700000F0A3F828B31C4800F05AF9C4B2204679
:101E8000FFF7E8F81948008800F40040C8B917487F
:101E9000008800F4804060B10A2C03D00020134970
:101EA000088020E01148008840F400400F49088075
:101EB00019E00D2C06D10D48008840F480400B49F4
:101EC000088010E009480088C0F30D0008490C5450
:101ED00006480088401C0549088008460088C72835
:101EE00001DD0020088010BD0038014034000020D2
:101EF0001404002010B540F22551204800F05DF890
:101F000000283AD01D4800F013F9C4B21C480088DC
:101F100000F4004058BB1A48008800F4804060B1CB
:101F20000A2C03D000201649088020E014480088BD
:101F300040F400401249088019E00D2C06D11048E9
:101F4000008840F480400E49088010E00C4800886A
:101F5000C0F30D000B490C5409480088401C084987
:101F6000088008460088C72801DD0020088001227B
:101F700040F22551014800F04AF810BD00480040E9
:101F8000340000201404002021B1828942F4005260
:101F9000828104E082894DF6FF731A408281704786
:101FA00002460020B1F5007F00D100BF13880B402E
:101FB0000BB1012000E00020704770B502460024FC
:101FC00000230025002040F66A16B14200D100BF70
:101FD000C1F3421501F01F03012606FA03F3012D98
:101FE00002D19689334006E0022D02D1168A334091
:101FF00001E0968A33400C12012606FA04F4168892
:10200000344013B10CB1012000E0002070BDF0B5E8
:102010000346002400260025002040F66A17B94236
:1020200000D100BF1846C1F3421401F01F0601277A
:1020300007FA06F5012C01D10C3004E0022C01D185
:10204000103000E014301AB107682F43076002E037
:102050000768AF430760F0BD2DE9F04786B005463D
:102060000E460024A24600BFA1460027B08900B159
:1020700000BF2F462C8A4CF6FF700440F0880443C2
:102080002C82AC894EF6F3100440B08831890843A5
:10209000718908430443AC81AC8A4FF6FF40044089
:1020A000B0890443AC8201A8FEF712FF1F488742A3
:1020B00002D1DDF810A001E0DDF80CA0A88900F441
:1020C000004040B10AEBCA0000EB0A103168490039
:1020D000B0FBF1F807E00AEBCA0000EB0A10316828
:1020E0008900B0FBF1F86420B8FBF0F0040120098E
:1020F000642101FB1089A88900F4004040B132201E
:1021000000EBC900B0FBF1F000F00700044308E069
:10211000322000EB09106421B0FBF1F000F00F0059
:1021200004432C8106B0BDE8F08700000038014070
:1021300001468888C0F308007047C1F30802828016
:102140007047000000B585B002211448FEF7F4FA8C
:1021500010B304211148FEF717FA11490F48FEF792
:10216000F7F96A4600210D48FEF709FC0D49009871
:1021700008600098092807D052280BD100220A498C
:102180006846FEF70FFF06E0002207496846FEF7A3
:102190004DFF00E000BF00BF05B000BD006400407F
:1021A0000800003228000020D000002000BFFEE719
:1021B0007CB506460C461546002001900FA000682D
:1021C000009001A93046FEF75CFC042101A800F054
:1021D00035F801A92046FEF754FC042101A800F0BF
:1021E0002DF801A92846FEF74CFC042101A800F0B7
:1021F00025F80421684600F021F87CBD0000807FAE
:1022000000BF7047FEF722FDFEF740FDFEF72CF9F8
:10221000FFF7ECFDFEF7A4F84FF4E13000F02CF8E6
:102220001020FEF751FD034800680349887000BF85
:10223000FEE7000018812142A800002070B5054685
:102240000E46002404E0285D00F006F8601C84B20D
:10225000B442F8DB70BD000010B5044621460548C5
:10226000FFF76BFF00BF80210248FFF799FE0028AF
:10227000F9D010BD0038014010B586B004460121E8
:1022800044F20400FEF704FE4FF40070ADF81400B1
:1022900003208DF8160018208DF8170005A91C489A
:1022A000FEF7FDFB4FF48060ADF8140004208DF8BC
:1022B000170005A91648FEF7F2FB25208DF800004F
:1022C00003208DF801008DF8020001208DF8030035
:1022D0006846FEF779FD01940020ADF80800ADF8DE
:1022E0000A00ADF80C00ADF810000C20ADF80E009F
:1022F00001A90848FFF7B0FE012240F22551054828
:10230000FFF785FE01210348FFF73EFE06B010BD32
:10231000000801400038014021F00042A2F1605263
:10232000B2F5801F01F0004328BFD2F17F6C0BD9BA
:102330005FEA001C43EAC20242EB507018BF7047CC
:1023400028BF20F001007047B2F5801FBCBF1846BF
:1023500070474FEA410C1CF5001F02D2084600F0FE
:102360003EBB70B500F052F800000089FFF7F6BFE1
:102370004FF00040A0F580007047491058BFC1F1F0
:1023800040415B1058BFC3F140438B42EFF30080E4
:102390007047000051EA030C17D41CF5801F58BF8A
:1023A000BCF5801F00F10680994218BF704708BF36
:1023B0009042704707D711F5801F58BF13F5801F53
:1023C00019D499427047894270471CF5801F08D57F
:1023D000BCF5801FF7D58B4218BF704708BF8242FB
:1023E00070474FF4001C1CEB410F38BF1CEB430F30
:1023F00001D28B42704770B500F008F89224490072
:102400004FF000514FF08053FFF7B7BF0EF1020EAF
:102410002EF0030E5EF8046B364205D4012A43EB1E
:10242000030515F5001F12D8012841EB010C1CF51E
:10243000001F0CD80ED14FEAD17C15F5001F0CEB14
:102440004C0C0CF1020C08BF4CEBD37C04E04FF0B9
:10245000080C01E04FEAD37C0CEB4C0526FA05F69C
:1024600006F00706B6F1040C06D20EEB860CBDE8AA
:1024700070404CF0010C6047DFE80CF0090B0202E1
:102480004FF000414FF00000A1F5002170BD19464A
:102490001046012851EB010418BFD4F5001484BF85
:1024A000002001F0004170BD0808A0F500114FEABE
:1024B0003101704753EA010C17D41CF5801F58BF37
:1024C000BCF5801F00F106808B4218BF704708BF23
:1024D0008242704707D713F5801F58BF11F5801F40
:1024E00019D48B4270479B4270471CF5801F08D55A
:1024F000BCF5801FF7D5994218BF704708BF9042BE
:1025000070474FF4001C1CEB430F38BF1CEB410F0E
:1025100001D2994270470FB40CBC03BCFFF76BBFEC
:1025200043004FEAD30C4FEA3C0C43401FBF400727
:102530000CF1605113F0FE4F70471CF0006F03D197
:1025400000200CF0004170470CF0004343EA50704B
:1025500010B540EACC0000F0FCF900BF000000928A
:102560004FEA0001FFF7A0BF4FF000414FF000001D
:10257000A1F500217047000090EA010F48BF81F0EB
:10258000004100F13882421A3CBF801A89184FEA94
:10259000D0524FF07F4C1CEA410FA2EBD15318BF31
:1025A0009CEA026F00F03B804FF0004C4CEA0020A8
:1025B0004CEA012121FA03FC10EB0C0C1ED202F1B3
:1025C000FF325FEA1C2040EBC25038BF70471CF05E
:1025D0007F0F4FEA400C18BFBCF17F4F38BF7047E8
:1025E000C3F12003994008BF20F00100BCF17F4FE8
:1025F00038BF7047A0F1C04000F0F1B94FEA3C008D
:10260000000A40EBC25028BF1CF0FF0F4FEA400CFD
:10261000E6D018BFBCF17F4F38BF7047EAE79CEAAD
:10262000026F05D010EA5C0F08BF00F00040704751
:1026300010B500F08EF900BF64FBBE3E4FF47F0C76
:102640001CEAD0121EBF1CEAD11392EA0C0F93EAC7
:102650000C0F00F0858090EA010F48BF42F48072B1
:1026600040F4000C41F400002CF07F4120F07F404A
:1026700000B58142A2EB03020FF2081CACEB504EF6
:10268000C0F100009EF800E04FEA4E0E00FB0EFC89
:1026900038BF49004FEA2C1C02F5FA020CFB0EF37E
:1026A0004FEACE1E4FEA112C4FEAC1210EEB635EBA
:1026B00042EB22420EFB0CFC4FEA1C5300FB0311C1
:1026C0004FEA112C4FEA01310EFB0CFC4FEADC4CB7
:1026D00000FB0C11C14228BF09184CEB03335DF815
:1026E00004EB10EB410143EBC250B2F57C0F38BF55
:1026F000704729D512F0F00F1CBF00F1C04000F068
:1027000000407047008182838485868788898B8C0E
:102710008D8E8F919293959697999A9C9D9FA0A24A
:10272000A3A5A7A8AAACAEB0B2B3B5B7B9BCBEC09A
:10273000C2C5C7C9CCCED1D4D7D9DCDFE2E6E9EC3B
:10274000F0F3F7FAFE0000004FEA400C0CF1807C39
:10275000BCF17E4F28BF7047B0F1C04000F03FB9D8
:1027600090EA010F0CEAD11348BF42F4807262452F
:1027700038BF634507D213F47F0F16D080EA0100FB
:1027800000F00040704710B500F0E3F8097EFC3E11
:1027900000F005B880EA010000F00040704780EAD0
:1027A000010000F0004000F01AB912F47F0F04BFDE
:1027B0000248704780EA010000F011B90000C07FB4
:1027C00041000B0ED3F19E0208D950F400034FEAEA
:1027D000032323FA02F048BF4042704710B500F0CF
:1027E000B8F800BF49922480002070476FF0004283
:1027F00082EA20007047000010F0004148BF4042CC
:10280000B0FA80F310FA03F2C3F19D030BD051EA42
:10281000C35101EB1220530638BF704700F101008D
:1028200008BF20F001007047B0FA80F310FA03F2FD
:10283000C3F19D030AD0D90501EB1220530638BF1E
:10284000704700F1010008BF20F001007047000050
:102850004FF47F0C1CEAD0121EBF1CEAD11392EA7F
:102860000C0F93EA0C0F00F0478090EA010F48BF6D
:1028700042F480724FF0004C4CEA00204CEA0121F7
:1028800002EB0302A0FB0113A2F50002002918BF0E
:1028900043F001035B0028BF4FEA330342EB2242BF
:1028A0005FEA132C4CEBC2502EBFBCEB436FB2F56A
:1028B0007C0F70474FEA036CBCF1004F08BF20F05B
:1028C0000100B2F57C0F38BF70470BD582F0FF02D4
:1028D00012F5803FC8BF704700F1C040D8BF00F07C
:1028E0000040704700F5000C5FEA4C0C48BF704791
:1028F000B0F1C04000F073B890EA010F0CEAD113B8
:1029000048BF42F48072624538BF634504D280EA12
:10291000010000F00040704710B500F01AF800BF49
:102920008900013E00F007B800F009B85FEA410CE9
:102930005FEA1C6C08D080EA010000F050B85FEA42
:10294000400C5FEA1C6CF6D14FF00040A0F580000F
:1029500070470EF1020E2EF0030E5EF8044B244277
:1029600004D44FEA4102B2F17F4F11D84FEA40033D
:10297000B3F17F4F0CD80ED14FEAD07CB2F17F4F2C
:102980000CEB4C0C0CF1020C08BF4CEBD17C04E0BE
:102990004FF0080C01E04FEAD17C0CEB4C0324FA19
:1029A00003F404F00704B4F1040C06D20EEB840C1B
:1029B000BDE810404CF0010C6047DFE80CF0070860
:1029C00002024FF00040A0F5800010BD0846420012
:1029D00018BFD2F1807288BF00F0004010BDFF2107
:1029E00041EAD050C005704790EA010F48BF81F01E
:1029F00000413FF5C8AD421A04D882F00042A0EB76
:102A0000020011444FEAD0524FF07F4C1CEA410FB4
:102A1000A2EBD15318BF9CEA026F4AD04FF0004C92
:102A20004CEA00204CEA012121FA03FCB0EB0C0C2B
:102A30000FD412F0FE0F36D05FEA4C001DD5001205
:102A400040EBC25038BF70471CF03F0F18BF7047B3
:102A50000BE0A2F101025FEA1C2040EBC25038BF3C
:102A600070471CF07F0F18BF7047C3F120039940D7
:102A700014BF401E20F00100704780084FEA122367
:102A800008BF7047B0FA80FCA2EB0C02CCF1280C16
:102A900060FA0CF093EA122F04BF00EBC2507047AB
:102AA0004FEAC3707047130A5FEADC1008BF704733
:102AB000F6E79CEA026F04D010EA5C0F08BF002022
:102AC000704710B5FFF745FF40DFF63E81F000404C
:102AD00070470000F42A00080000002038000000C1
:102AE000280100082C2B000838000020D00B000023
:102AF0004401000800000000010203040102030475
:102B00000607080902040608000000000000000093
:102B100000000000000000000000000000000000B5
:0C2B2000000000000000000000000000A9
:04000005080000ED02
:00000001FF
